{
  "contractName": "MyToken",
  "abi": [
    {
      "inputs": [
        {
          "internalType": "address",
          "name": "target",
          "type": "address"
        }
      ],
      "name": "AddressEmptyCode",
      "type": "error"
    },
    {
      "inputs": [
        {
          "internalType": "address",
          "name": "implementation",
          "type": "address"
        }
      ],
      "name": "ERC1967InvalidImplementation",
      "type": "error"
    },
    {
      "inputs": [],
      "name": "ERC1967NonPayable",
      "type": "error"
    },
    {
      "inputs": [
        {
          "internalType": "address",
          "name": "sender",
          "type": "address"
        },
        {
          "internalType": "uint256",
          "name": "tokenId",
          "type": "uint256"
        },
        {
          "internalType": "address",
          "name": "owner",
          "type": "address"
        }
      ],
      "name": "ERC721IncorrectOwner",
      "type": "error"
    },
    {
      "inputs": [
        {
          "internalType": "address",
          "name": "operator",
          "type": "address"
        },
        {
          "internalType": "uint256",
          "name": "tokenId",
          "type": "uint256"
        }
      ],
      "name": "ERC721InsufficientApproval",
      "type": "error"
    },
    {
      "inputs": [
        {
          "internalType": "address",
          "name": "approver",
          "type": "address"
        }
      ],
      "name": "ERC721InvalidApprover",
      "type": "error"
    },
    {
      "inputs": [
        {
          "internalType": "address",
          "name": "operator",
          "type": "address"
        }
      ],
      "name": "ERC721InvalidOperator",
      "type": "error"
    },
    {
      "inputs": [
        {
          "internalType": "address",
          "name": "owner",
          "type": "address"
        }
      ],
      "name": "ERC721InvalidOwner",
      "type": "error"
    },
    {
      "inputs": [
        {
          "internalType": "address",
          "name": "receiver",
          "type": "address"
        }
      ],
      "name": "ERC721InvalidReceiver",
      "type": "error"
    },
    {
      "inputs": [
        {
          "internalType": "address",
          "name": "sender",
          "type": "address"
        }
      ],
      "name": "ERC721InvalidSender",
      "type": "error"
    },
    {
      "inputs": [
        {
          "internalType": "uint256",
          "name": "tokenId",
          "type": "uint256"
        }
      ],
      "name": "ERC721NonexistentToken",
      "type": "error"
    },
    {
      "inputs": [],
      "name": "FailedInnerCall",
      "type": "error"
    },
    {
      "inputs": [],
      "name": "InvalidInitialization",
      "type": "error"
    },
    {
      "inputs": [],
      "name": "NotInitializing",
      "type": "error"
    },
    {
      "inputs": [
        {
          "internalType": "address",
          "name": "owner",
          "type": "address"
        }
      ],
      "name": "OwnableInvalidOwner",
      "type": "error"
    },
    {
      "inputs": [
        {
          "internalType": "address",
          "name": "account",
          "type": "address"
        }
      ],
      "name": "OwnableUnauthorizedAccount",
      "type": "error"
    },
    {
      "inputs": [],
      "name": "UUPSUnauthorizedCallContext",
      "type": "error"
    },
    {
      "inputs": [
        {
          "internalType": "bytes32",
          "name": "slot",
          "type": "bytes32"
        }
      ],
      "name": "UUPSUnsupportedProxiableUUID",
      "type": "error"
    },
    {
      "anonymous": false,
      "inputs": [
        {
          "indexed": true,
          "internalType": "address",
          "name": "owner",
          "type": "address"
        },
        {
          "indexed": true,
          "internalType": "address",
          "name": "approved",
          "type": "address"
        },
        {
          "indexed": true,
          "internalType": "uint256",
          "name": "tokenId",
          "type": "uint256"
        }
      ],
      "name": "Approval",
      "type": "event"
    },
    {
      "anonymous": false,
      "inputs": [
        {
          "indexed": true,
          "internalType": "address",
          "name": "owner",
          "type": "address"
        },
        {
          "indexed": true,
          "internalType": "address",
          "name": "operator",
          "type": "address"
        },
        {
          "indexed": false,
          "internalType": "bool",
          "name": "approved",
          "type": "bool"
        }
      ],
      "name": "ApprovalForAll",
      "type": "event"
    },
    {
      "anonymous": false,
      "inputs": [
        {
          "indexed": false,
          "internalType": "uint64",
          "name": "version",
          "type": "uint64"
        }
      ],
      "name": "Initialized",
      "type": "event"
    },
    {
      "anonymous": false,
      "inputs": [
        {
          "indexed": true,
          "internalType": "address",
          "name": "previousOwner",
          "type": "address"
        },
        {
          "indexed": true,
          "internalType": "address",
          "name": "newOwner",
          "type": "address"
        }
      ],
      "name": "OwnershipTransferred",
      "type": "event"
    },
    {
      "anonymous": false,
      "inputs": [
        {
          "indexed": true,
          "internalType": "address",
          "name": "from",
          "type": "address"
        },
        {
          "indexed": true,
          "internalType": "address",
          "name": "to",
          "type": "address"
        },
        {
          "indexed": true,
          "internalType": "uint256",
          "name": "tokenId",
          "type": "uint256"
        }
      ],
      "name": "Transfer",
      "type": "event"
    },
    {
      "anonymous": false,
      "inputs": [
        {
          "indexed": true,
          "internalType": "address",
          "name": "implementation",
          "type": "address"
        }
      ],
      "name": "Upgraded",
      "type": "event"
    },
    {
      "inputs": [],
      "name": "UPGRADE_INTERFACE_VERSION",
      "outputs": [
        {
          "internalType": "string",
          "name": "",
          "type": "string"
        }
      ],
      "stateMutability": "view",
      "type": "function"
    },
    {
      "inputs": [
        {
          "internalType": "address",
          "name": "to",
          "type": "address"
        },
        {
          "internalType": "uint256",
          "name": "tokenId",
          "type": "uint256"
        }
      ],
      "name": "approve",
      "outputs": [],
      "stateMutability": "nonpayable",
      "type": "function"
    },
    {
      "inputs": [
        {
          "internalType": "address",
          "name": "owner",
          "type": "address"
        }
      ],
      "name": "balanceOf",
      "outputs": [
        {
          "internalType": "uint256",
          "name": "",
          "type": "uint256"
        }
      ],
      "stateMutability": "view",
      "type": "function"
    },
    {
      "inputs": [
        {
          "internalType": "uint256",
          "name": "tokenId",
          "type": "uint256"
        }
      ],
      "name": "getApproved",
      "outputs": [
        {
          "internalType": "address",
          "name": "",
          "type": "address"
        }
      ],
      "stateMutability": "view",
      "type": "function"
    },
    {
      "inputs": [
        {
          "internalType": "address",
          "name": "owner",
          "type": "address"
        },
        {
          "internalType": "address",
          "name": "operator",
          "type": "address"
        }
      ],
      "name": "isApprovedForAll",
      "outputs": [
        {
          "internalType": "bool",
          "name": "",
          "type": "bool"
        }
      ],
      "stateMutability": "view",
      "type": "function"
    },
    {
      "inputs": [],
      "name": "name",
      "outputs": [
        {
          "internalType": "string",
          "name": "",
          "type": "string"
        }
      ],
      "stateMutability": "view",
      "type": "function"
    },
    {
      "inputs": [],
      "name": "owner",
      "outputs": [
        {
          "internalType": "address",
          "name": "",
          "type": "address"
        }
      ],
      "stateMutability": "view",
      "type": "function"
    },
    {
      "inputs": [
        {
          "internalType": "uint256",
          "name": "tokenId",
          "type": "uint256"
        }
      ],
      "name": "ownerOf",
      "outputs": [
        {
          "internalType": "address",
          "name": "",
          "type": "address"
        }
      ],
      "stateMutability": "view",
      "type": "function"
    },
    {
      "inputs": [],
      "name": "proxiableUUID",
      "outputs": [
        {
          "internalType": "bytes32",
          "name": "",
          "type": "bytes32"
        }
      ],
      "stateMutability": "view",
      "type": "function"
    },
    {
      "inputs": [],
      "name": "renounceOwnership",
      "outputs": [],
      "stateMutability": "nonpayable",
      "type": "function"
    },
    {
      "inputs": [
        {
          "internalType": "address",
          "name": "from",
          "type": "address"
        },
        {
          "internalType": "address",
          "name": "to",
          "type": "address"
        },
        {
          "internalType": "uint256",
          "name": "tokenId",
          "type": "uint256"
        }
      ],
      "name": "safeTransferFrom",
      "outputs": [],
      "stateMutability": "nonpayable",
      "type": "function"
    },
    {
      "inputs": [
        {
          "internalType": "address",
          "name": "from",
          "type": "address"
        },
        {
          "internalType": "address",
          "name": "to",
          "type": "address"
        },
        {
          "internalType": "uint256",
          "name": "tokenId",
          "type": "uint256"
        },
        {
          "internalType": "bytes",
          "name": "data",
          "type": "bytes"
        }
      ],
      "name": "safeTransferFrom",
      "outputs": [],
      "stateMutability": "nonpayable",
      "type": "function"
    },
    {
      "inputs": [
        {
          "internalType": "address",
          "name": "operator",
          "type": "address"
        },
        {
          "internalType": "bool",
          "name": "approved",
          "type": "bool"
        }
      ],
      "name": "setApprovalForAll",
      "outputs": [],
      "stateMutability": "nonpayable",
      "type": "function"
    },
    {
      "inputs": [
        {
          "internalType": "bytes4",
          "name": "interfaceId",
          "type": "bytes4"
        }
      ],
      "name": "supportsInterface",
      "outputs": [
        {
          "internalType": "bool",
          "name": "",
          "type": "bool"
        }
      ],
      "stateMutability": "view",
      "type": "function"
    },
    {
      "inputs": [],
      "name": "symbol",
      "outputs": [
        {
          "internalType": "string",
          "name": "",
          "type": "string"
        }
      ],
      "stateMutability": "view",
      "type": "function"
    },
    {
      "inputs": [
        {
          "internalType": "uint256",
          "name": "tokenId",
          "type": "uint256"
        }
      ],
      "name": "tokenURI",
      "outputs": [
        {
          "internalType": "string",
          "name": "",
          "type": "string"
        }
      ],
      "stateMutability": "view",
      "type": "function"
    },
    {
      "inputs": [
        {
          "internalType": "address",
          "name": "from",
          "type": "address"
        },
        {
          "internalType": "address",
          "name": "to",
          "type": "address"
        },
        {
          "internalType": "uint256",
          "name": "tokenId",
          "type": "uint256"
        }
      ],
      "name": "transferFrom",
      "outputs": [],
      "stateMutability": "nonpayable",
      "type": "function"
    },
    {
      "inputs": [
        {
          "internalType": "address",
          "name": "newOwner",
          "type": "address"
        }
      ],
      "name": "transferOwnership",
      "outputs": [],
      "stateMutability": "nonpayable",
      "type": "function"
    },
    {
      "inputs": [
        {
          "internalType": "address",
          "name": "newImplementation",
          "type": "address"
        },
        {
          "internalType": "bytes",
          "name": "data",
          "type": "bytes"
        }
      ],
      "name": "upgradeToAndCall",
      "outputs": [],
      "stateMutability": "payable",
      "type": "function"
    },
    {
      "inputs": [],
      "name": "initialize",
      "outputs": [],
      "stateMutability": "nonpayable",
      "type": "function"
    },
    {
      "inputs": [
        {
          "internalType": "address",
          "name": "_to",
          "type": "address"
        },
        {
          "internalType": "uint256",
          "name": "_tokenId",
          "type": "uint256"
        }
      ],
      "name": "safeMint",
      "outputs": [],
      "stateMutability": "nonpayable",
      "type": "function"
    }
  ],
  "bytecode": "0x60a06040523073ffffffffffffffffffffffffffffffffffffffff1660809073ffffffffffffffffffffffffffffffffffffffff16815250348015610042575f80fd5b50608051612f386100695f395f818161112f01528181611184015261133e0152612f385ff3fe608060405260043610610129575f3560e01c8063715018a6116100aa578063a22cb4651161006e578063a22cb465146103ad578063ad3cb1cc146103d5578063b88d4fde146103ff578063c87b56dd14610427578063e985e9c514610463578063f2fde38b1461049f57610129565b8063715018a6146103055780638129fc1c1461031b5780638da5cb5b1461033157806395d89b411461035b578063a14481941461038557610129565b806342842e0e116100f157806342842e0e1461021f5780634f1ef2861461024757806352d1902d146102635780636352211e1461028d57806370a08231146102c957610129565b806301ffc9a71461012d57806306fdde0314610169578063081812fc14610193578063095ea7b3146101cf57806323b872dd146101f7575b5f80fd5b348015610138575f80fd5b50610153600480360381019061014e91906123c8565b6104c7565b604051610160919061240d565b60405180910390f35b348015610174575f80fd5b5061017d6105a8565b60405161018a91906124b0565b60405180910390f35b34801561019e575f80fd5b506101b960048036038101906101b49190612503565b610645565b6040516101c6919061256d565b60405180910390f35b3480156101da575f80fd5b506101f560048036038101906101f091906125b0565b610660565b005b348015610202575f80fd5b5061021d600480360381019061021891906125ee565b610676565b005b34801561022a575f80fd5b50610245600480360381019061024091906125ee565b610775565b005b610261600480360381019061025c919061276a565b610794565b005b34801561026e575f80fd5b506102776107b3565b60405161028491906127dc565b60405180910390f35b348015610298575f80fd5b506102b360048036038101906102ae9190612503565b6107e4565b6040516102c0919061256d565b60405180910390f35b3480156102d4575f80fd5b506102ef60048036038101906102ea91906127f5565b6107f5565b6040516102fc919061282f565b60405180910390f35b348015610310575f80fd5b506103196108b9565b005b348015610326575f80fd5b5061032f6108cc565b005b34801561033c575f80fd5b50610345610abf565b604051610352919061256d565b60405180910390f35b348015610366575f80fd5b5061036f610af4565b60405161037c91906124b0565b60405180910390f35b348015610390575f80fd5b506103ab60048036038101906103a691906125b0565b610b92565b005b3480156103b8575f80fd5b506103d360048036038101906103ce9190612872565b610ba8565b005b3480156103e0575f80fd5b506103e9610bbe565b6040516103f691906124b0565b60405180910390f35b34801561040a575f80fd5b50610425600480360381019061042091906128b0565b610bf7565b005b348015610432575f80fd5b5061044d60048036038101906104489190612503565b610c14565b60405161045a91906124b0565b60405180910390f35b34801561046e575f80fd5b5061048960048036038101906104849190612930565b610c7a565b604051610496919061240d565b60405180910390f35b3480156104aa575f80fd5b506104c560048036038101906104c091906127f5565b610d16565b005b5f7f80ac58cd000000000000000000000000000000000000000000000000000000007bffffffffffffffffffffffffffffffffffffffffffffffffffffffff1916827bffffffffffffffffffffffffffffffffffffffffffffffffffffffff1916148061059157507f5b5e139f000000000000000000000000000000000000000000000000000000007bffffffffffffffffffffffffffffffffffffffffffffffffffffffff1916827bffffffffffffffffffffffffffffffffffffffffffffffffffffffff1916145b806105a157506105a082610d9a565b5b9050919050565b60605f6105b3610e03565b9050805f0180546105c39061299b565b80601f01602080910402602001604051908101604052809291908181526020018280546105ef9061299b565b801561063a5780601f106106115761010080835404028352916020019161063a565b820191905f5260205f20905b81548152906001019060200180831161061d57829003601f168201915b505050505091505090565b5f61064f82610e2a565b5061065982610eb0565b9050919050565b610672828261066d610ef7565b610efe565b5050565b5f73ffffffffffffffffffffffffffffffffffffffff168273ffffffffffffffffffffffffffffffffffffffff16036106e6575f6040517f64a0ae920000000000000000000000000000000000000000000000000000000081526004016106dd919061256d565b60405180910390fd5b5f6106f983836106f4610ef7565b610f10565b90508373ffffffffffffffffffffffffffffffffffffffff168173ffffffffffffffffffffffffffffffffffffffff161461076f578382826040517f64283d7b000000000000000000000000000000000000000000000000000000008152600401610766939291906129cb565b60405180910390fd5b50505050565b61078f83838360405180602001604052805f815250610bf7565b505050565b61079c61112d565b6107a582611213565b6107af828261121e565b5050565b5f6107bc61133c565b7f360894a13ba1a3210667c828492db98dca3e2076cc3735a920a3ca505d382bbc5f1b905090565b5f6107ee82610e2a565b9050919050565b5f806107ff610e03565b90505f73ffffffffffffffffffffffffffffffffffffffff168373ffffffffffffffffffffffffffffffffffffffff1603610871575f6040517f89c62b64000000000000000000000000000000000000000000000000000000008152600401610868919061256d565b60405180910390fd5b806003015f8473ffffffffffffffffffffffffffffffffffffffff1673ffffffffffffffffffffffffffffffffffffffff1681526020019081526020015f2054915050919050565b6108c16113c3565b6108ca5f61144a565b565b5f6108d561151b565b90505f815f0160089054906101000a900460ff161590505f825f015f9054906101000a900467ffffffffffffffff1690505f808267ffffffffffffffff1614801561091d5750825b90505f60018367ffffffffffffffff1614801561095057505f3073ffffffffffffffffffffffffffffffffffffffff163b145b90508115801561095e575080155b15610995576040517ff92ee8a900000000000000000000000000000000000000000000000000000000815260040160405180910390fd5b6001855f015f6101000a81548167ffffffffffffffff021916908367ffffffffffffffff16021790555083156109e2576001855f0160086101000a81548160ff0219169083151502179055505b610a566040518060400160405280600781526020017f4d79546f6b656e000000000000000000000000000000000000000000000000008152506040518060400160405280600381526020017f4d544b0000000000000000000000000000000000000000000000000000000000815250611542565b610a5e611558565b8315610ab8575f855f0160086101000a81548160ff0219169083151502179055507fc7f505b2f371ae2175ee4913f4499e1f2633a7b5936321eed1cdaeb6115181d26001604051610aaf9190612a55565b60405180910390a15b5050505050565b5f80610ac9611562565b9050805f015f9054906101000a900473ffffffffffffffffffffffffffffffffffffffff1691505090565b60605f610aff610e03565b9050806001018054610b109061299b565b80601f0160208091040260200160405190810160405280929190818152602001828054610b3c9061299b565b8015610b875780601f10610b5e57610100808354040283529160200191610b87565b820191905f5260205f20905b815481529060010190602001808311610b6a57829003601f168201915b505050505091505090565b610b9a6113c3565b610ba48282611589565b5050565b610bba610bb3610ef7565b83836115a6565b5050565b6040518060400160405280600581526020017f352e302e3000000000000000000000000000000000000000000000000000000081525081565b610c02848484610676565b610c0e8484848461171d565b50505050565b6060610c1f82610e2a565b505f610c296118cf565b90505f815111610c475760405180602001604052805f815250610c72565b80610c51846118e5565b604051602001610c62929190612aa8565b6040516020818303038152906040525b915050919050565b5f80610c84610e03565b9050806005015f8573ffffffffffffffffffffffffffffffffffffffff1673ffffffffffffffffffffffffffffffffffffffff1681526020019081526020015f205f8473ffffffffffffffffffffffffffffffffffffffff1673ffffffffffffffffffffffffffffffffffffffff1681526020019081526020015f205f9054906101000a900460ff1691505092915050565b610d1e6113c3565b5f73ffffffffffffffffffffffffffffffffffffffff168173ffffffffffffffffffffffffffffffffffffffff1603610d8e575f6040517f1e4fbdf7000000000000000000000000000000000000000000000000000000008152600401610d85919061256d565b60405180910390fd5b610d978161144a565b50565b5f7f01ffc9a7000000000000000000000000000000000000000000000000000000007bffffffffffffffffffffffffffffffffffffffffffffffffffffffff1916827bffffffffffffffffffffffffffffffffffffffffffffffffffffffff1916149050919050565b5f7f80bb2b638cc20bc4d0a60d66940f3ab4a00c1d7b313497ca82fb0b4ab0079300905090565b5f80610e35836119af565b90505f73ffffffffffffffffffffffffffffffffffffffff168173ffffffffffffffffffffffffffffffffffffffff1603610ea757826040517f7e273289000000000000000000000000000000000000000000000000000000008152600401610e9e919061282f565b60405180910390fd5b80915050919050565b5f80610eba610e03565b9050806004015f8481526020019081526020015f205f9054906101000a900473ffffffffffffffffffffffffffffffffffffffff16915050919050565b5f33905090565b610f0b83838360016119f6565b505050565b5f80610f1a610e03565b90505f610f26856119af565b90505f73ffffffffffffffffffffffffffffffffffffffff168473ffffffffffffffffffffffffffffffffffffffff1614610f6757610f66818587611bc3565b5b5f73ffffffffffffffffffffffffffffffffffffffff168173ffffffffffffffffffffffffffffffffffffffff1614610ff457610fa65f865f806119f6565b6001826003015f8373ffffffffffffffffffffffffffffffffffffffff1673ffffffffffffffffffffffffffffffffffffffff1681526020019081526020015f205f82825403925050819055505b5f73ffffffffffffffffffffffffffffffffffffffff168673ffffffffffffffffffffffffffffffffffffffff1614611075576001826003015f8873ffffffffffffffffffffffffffffffffffffffff1673ffffffffffffffffffffffffffffffffffffffff1681526020019081526020015f205f82825401925050819055505b85826002015f8781526020019081526020015f205f6101000a81548173ffffffffffffffffffffffffffffffffffffffff021916908373ffffffffffffffffffffffffffffffffffffffff160217905550848673ffffffffffffffffffffffffffffffffffffffff168273ffffffffffffffffffffffffffffffffffffffff167fddf252ad1be2c89b69c2b068fc378daa952ba7f163c4a11628f55a4df523b3ef60405160405180910390a480925050509392505050565b7f000000000000000000000000000000000000000000000000000000000000000073ffffffffffffffffffffffffffffffffffffffff163073ffffffffffffffffffffffffffffffffffffffff1614806111da57507f000000000000000000000000000000000000000000000000000000000000000073ffffffffffffffffffffffffffffffffffffffff166111c1611c86565b73ffffffffffffffffffffffffffffffffffffffff1614155b15611211576040517fe07c8dba00000000000000000000000000000000000000000000000000000000815260040160405180910390fd5b565b61121b6113c3565b50565b8173ffffffffffffffffffffffffffffffffffffffff166352d1902d6040518163ffffffff1660e01b8152600401602060405180830381865afa92505050801561128657506040513d601f19601f820116820180604052508101906112839190612af5565b60015b6112c757816040517f4c9c8ce30000000000000000000000000000000000000000000000000000000081526004016112be919061256d565b60405180910390fd5b7f360894a13ba1a3210667c828492db98dca3e2076cc3735a920a3ca505d382bbc5f1b811461132d57806040517faa1d49a400000000000000000000000000000000000000000000000000000000815260040161132491906127dc565b60405180910390fd5b6113378383611cd9565b505050565b7f000000000000000000000000000000000000000000000000000000000000000073ffffffffffffffffffffffffffffffffffffffff163073ffffffffffffffffffffffffffffffffffffffff16146113c1576040517fe07c8dba00000000000000000000000000000000000000000000000000000000815260040160405180910390fd5b565b6113cb610ef7565b73ffffffffffffffffffffffffffffffffffffffff166113e9610abf565b73ffffffffffffffffffffffffffffffffffffffff16146114485761140c610ef7565b6040517f118cdaa700000000000000000000000000000000000000000000000000000000815260040161143f919061256d565b60405180910390fd5b565b5f611453611562565b90505f815f015f9054906101000a900473ffffffffffffffffffffffffffffffffffffffff16905082825f015f6101000a81548173ffffffffffffffffffffffffffffffffffffffff021916908373ffffffffffffffffffffffffffffffffffffffff1602179055508273ffffffffffffffffffffffffffffffffffffffff168173ffffffffffffffffffffffffffffffffffffffff167f8be0079c531659141344cd1fd0a4f28419497f9722a3daafe3b4186f6b6457e060405160405180910390a3505050565b5f7ff0c57e16840df040f15088dc2f81fe391c3923bec73e23a9662efc9c229c6a00905090565b61154a611d4b565b6115548282611d8b565b5050565b611560611d4b565b565b5f7f9016d09d72d40fdae2fd8ceac6b6234c7706214fd39c1cd1e609a0528c199300905090565b6115a2828260405180602001604052805f815250611dc6565b5050565b5f6115af610e03565b90505f73ffffffffffffffffffffffffffffffffffffffff168373ffffffffffffffffffffffffffffffffffffffff160361162157826040517f5b08ba18000000000000000000000000000000000000000000000000000000008152600401611618919061256d565b60405180910390fd5b81816005015f8673ffffffffffffffffffffffffffffffffffffffff1673ffffffffffffffffffffffffffffffffffffffff1681526020019081526020015f205f8573ffffffffffffffffffffffffffffffffffffffff1673ffffffffffffffffffffffffffffffffffffffff1681526020019081526020015f205f6101000a81548160ff0219169083151502179055508273ffffffffffffffffffffffffffffffffffffffff168473ffffffffffffffffffffffffffffffffffffffff167f17307eab39ab6107e8899845ad3d59bd9653f200f220920489ca2b5937696c318460405161170f919061240d565b60405180910390a350505050565b5f8373ffffffffffffffffffffffffffffffffffffffff163b11156118c9578273ffffffffffffffffffffffffffffffffffffffff1663150b7a02611760610ef7565b8685856040518563ffffffff1660e01b81526004016117829493929190612b72565b6020604051808303815f875af19250505080156117bd57506040513d601f19601f820116820180604052508101906117ba9190612bd0565b60015b61183e573d805f81146117eb576040519150601f19603f3d011682016040523d82523d5f602084013e6117f0565b606091505b505f81510361183657836040517f64a0ae9200000000000000000000000000000000000000000000000000000000815260040161182d919061256d565b60405180910390fd5b805181602001fd5b63150b7a0260e01b7bffffffffffffffffffffffffffffffffffffffffffffffffffffffff1916817bffffffffffffffffffffffffffffffffffffffffffffffffffffffff1916146118c757836040517f64a0ae920000000000000000000000000000000000000000000000000000000081526004016118be919061256d565b60405180910390fd5b505b50505050565b606060405180602001604052805f815250905090565b60605f60016118f384611de1565b0190505f8167ffffffffffffffff81111561191157611910612646565b5b6040519080825280601f01601f1916602001820160405280156119435781602001600182028036833780820191505090505b5090505f82602001820190505b6001156119a4578080600190039150507f3031323334353637383961626364656600000000000000000000000000000000600a86061a8153600a858161199957611998612bfb565b5b0494505f8503611950575b819350505050919050565b5f806119b9610e03565b9050806002015f8481526020019081526020015f205f9054906101000a900473ffffffffffffffffffffffffffffffffffffffff16915050919050565b5f6119ff610e03565b90508180611a3957505f73ffffffffffffffffffffffffffffffffffffffff168373ffffffffffffffffffffffffffffffffffffffff1614155b15611b6b575f611a4885610e2a565b90505f73ffffffffffffffffffffffffffffffffffffffff168473ffffffffffffffffffffffffffffffffffffffff1614158015611ab257508373ffffffffffffffffffffffffffffffffffffffff168173ffffffffffffffffffffffffffffffffffffffff1614155b8015611ac55750611ac38185610c7a565b155b15611b0757836040517fa9fbf51f000000000000000000000000000000000000000000000000000000008152600401611afe919061256d565b60405180910390fd5b8215611b6957848673ffffffffffffffffffffffffffffffffffffffff168273ffffffffffffffffffffffffffffffffffffffff167f8c5be1e5ebec7d5bd14f71427d1e84f3dd0314c0f7b2291e5b200ac8c7c3b92560405160405180910390a45b505b84816004015f8681526020019081526020015f205f6101000a81548173ffffffffffffffffffffffffffffffffffffffff021916908373ffffffffffffffffffffffffffffffffffffffff1602179055505050505050565b611bce838383611f32565b611c81575f73ffffffffffffffffffffffffffffffffffffffff168373ffffffffffffffffffffffffffffffffffffffff1603611c4257806040517f7e273289000000000000000000000000000000000000000000000000000000008152600401611c39919061282f565b60405180910390fd5b81816040517f177e802f000000000000000000000000000000000000000000000000000000008152600401611c78929190612c28565b60405180910390fd5b505050565b5f611cb27f360894a13ba1a3210667c828492db98dca3e2076cc3735a920a3ca505d382bbc5f1b611ff2565b5f015f9054906101000a900473ffffffffffffffffffffffffffffffffffffffff16905090565b611ce282611ffb565b8173ffffffffffffffffffffffffffffffffffffffff167fbc7cd75a20ee27fd9adebab32041f755214dbc6bffa90cc0225b39da2e5c2d3b60405160405180910390a25f81511115611d3e57611d3882826120c4565b50611d47565b611d46612144565b5b5050565b611d53612180565b611d89576040517fd7e6bcf800000000000000000000000000000000000000000000000000000000815260040160405180910390fd5b565b611d93611d4b565b5f611d9c610e03565b905082815f019081611dae9190612de3565b5081816001019081611dc09190612de3565b50505050565b611dd0838361219e565b611ddc5f84848461171d565b505050565b5f805f90507a184f03e93ff9f4daa797ed6e38ed64bf6a1f0100000000000000008310611e3d577a184f03e93ff9f4daa797ed6e38ed64bf6a1f0100000000000000008381611e3357611e32612bfb565b5b0492506040810190505b6d04ee2d6d415b85acef81000000008310611e7a576d04ee2d6d415b85acef81000000008381611e7057611e6f612bfb565b5b0492506020810190505b662386f26fc100008310611ea957662386f26fc100008381611e9f57611e9e612bfb565b5b0492506010810190505b6305f5e1008310611ed2576305f5e1008381611ec857611ec7612bfb565b5b0492506008810190505b6127108310611ef7576127108381611eed57611eec612bfb565b5b0492506004810190505b60648310611f1a5760648381611f1057611f0f612bfb565b5b0492506002810190505b600a8310611f29576001810190505b80915050919050565b5f8073ffffffffffffffffffffffffffffffffffffffff168373ffffffffffffffffffffffffffffffffffffffff1614158015611fe957508273ffffffffffffffffffffffffffffffffffffffff168473ffffffffffffffffffffffffffffffffffffffff161480611faa5750611fa98484610c7a565b5b80611fe857508273ffffffffffffffffffffffffffffffffffffffff16611fd083610eb0565b73ffffffffffffffffffffffffffffffffffffffff16145b5b90509392505050565b5f819050919050565b5f8173ffffffffffffffffffffffffffffffffffffffff163b0361205657806040517f4c9c8ce300000000000000000000000000000000000000000000000000000000815260040161204d919061256d565b60405180910390fd5b806120827f360894a13ba1a3210667c828492db98dca3e2076cc3735a920a3ca505d382bbc5f1b611ff2565b5f015f6101000a81548173ffffffffffffffffffffffffffffffffffffffff021916908373ffffffffffffffffffffffffffffffffffffffff16021790555050565b60605f808473ffffffffffffffffffffffffffffffffffffffff16846040516120ed9190612eec565b5f60405180830381855af49150503d805f8114612125576040519150601f19603f3d011682016040523d82523d5f602084013e61212a565b606091505b509150915061213a858383612291565b9250505092915050565b5f34111561217e576040517fb398979f00000000000000000000000000000000000000000000000000000000815260040160405180910390fd5b565b5f61218961151b565b5f0160089054906101000a900460ff16905090565b5f73ffffffffffffffffffffffffffffffffffffffff168273ffffffffffffffffffffffffffffffffffffffff160361220e575f6040517f64a0ae92000000000000000000000000000000000000000000000000000000008152600401612205919061256d565b60405180910390fd5b5f61221a83835f610f10565b90505f73ffffffffffffffffffffffffffffffffffffffff168173ffffffffffffffffffffffffffffffffffffffff161461228c575f6040517f73c6ac6e000000000000000000000000000000000000000000000000000000008152600401612283919061256d565b60405180910390fd5b505050565b6060826122a6576122a18261231e565b612316565b5f82511480156122cc57505f8473ffffffffffffffffffffffffffffffffffffffff163b145b1561230e57836040517f9996b315000000000000000000000000000000000000000000000000000000008152600401612305919061256d565b60405180910390fd5b819050612317565b5b9392505050565b5f815111156123305780518082602001fd5b6040517f1425ea4200000000000000000000000000000000000000000000000000000000815260040160405180910390fd5b5f604051905090565b5f80fd5b5f80fd5b5f7fffffffff0000000000000000000000000000000000000000000000000000000082169050919050565b6123a781612373565b81146123b1575f80fd5b50565b5f813590506123c28161239e565b92915050565b5f602082840312156123dd576123dc61236b565b5b5f6123ea848285016123b4565b91505092915050565b5f8115159050919050565b612407816123f3565b82525050565b5f6020820190506124205f8301846123fe565b92915050565b5f81519050919050565b5f82825260208201905092915050565b5f5b8381101561245d578082015181840152602081019050612442565b5f8484015250505050565b5f601f19601f8301169050919050565b5f61248282612426565b61248c8185612430565b935061249c818560208601612440565b6124a581612468565b840191505092915050565b5f6020820190508181035f8301526124c88184612478565b905092915050565b5f819050919050565b6124e2816124d0565b81146124ec575f80fd5b50565b5f813590506124fd816124d9565b92915050565b5f602082840312156125185761251761236b565b5b5f612525848285016124ef565b91505092915050565b5f73ffffffffffffffffffffffffffffffffffffffff82169050919050565b5f6125578261252e565b9050919050565b6125678161254d565b82525050565b5f6020820190506125805f83018461255e565b92915050565b61258f8161254d565b8114612599575f80fd5b50565b5f813590506125aa81612586565b92915050565b5f80604083850312156125c6576125c561236b565b5b5f6125d38582860161259c565b92505060206125e4858286016124ef565b9150509250929050565b5f805f606084860312156126055761260461236b565b5b5f6126128682870161259c565b93505060206126238682870161259c565b9250506040612634868287016124ef565b9150509250925092565b5f80fd5b5f80fd5b7f4e487b71000000000000000000000000000000000000000000000000000000005f52604160045260245ffd5b61267c82612468565b810181811067ffffffffffffffff8211171561269b5761269a612646565b5b80604052505050565b5f6126ad612362565b90506126b98282612673565b919050565b5f67ffffffffffffffff8211156126d8576126d7612646565b5b6126e182612468565b9050602081019050919050565b828183375f83830152505050565b5f61270e612709846126be565b6126a4565b90508281526020810184848401111561272a57612729612642565b5b6127358482856126ee565b509392505050565b5f82601f8301126127515761275061263e565b5b81356127618482602086016126fc565b91505092915050565b5f80604083850312156127805761277f61236b565b5b5f61278d8582860161259c565b925050602083013567ffffffffffffffff8111156127ae576127ad61236f565b5b6127ba8582860161273d565b9150509250929050565b5f819050919050565b6127d6816127c4565b82525050565b5f6020820190506127ef5f8301846127cd565b92915050565b5f6020828403121561280a5761280961236b565b5b5f6128178482850161259c565b91505092915050565b612829816124d0565b82525050565b5f6020820190506128425f830184612820565b92915050565b612851816123f3565b811461285b575f80fd5b50565b5f8135905061286c81612848565b92915050565b5f80604083850312156128885761288761236b565b5b5f6128958582860161259c565b92505060206128a68582860161285e565b9150509250929050565b5f805f80608085870312156128c8576128c761236b565b5b5f6128d58782880161259c565b94505060206128e68782880161259c565b93505060406128f7878288016124ef565b925050606085013567ffffffffffffffff8111156129185761291761236f565b5b6129248782880161273d565b91505092959194509250565b5f80604083850312156129465761294561236b565b5b5f6129538582860161259c565b92505060206129648582860161259c565b9150509250929050565b7f4e487b71000000000000000000000000000000000000000000000000000000005f52602260045260245ffd5b5f60028204905060018216806129b257607f821691505b6020821081036129c5576129c461296e565b5b50919050565b5f6060820190506129de5f83018661255e565b6129eb6020830185612820565b6129f8604083018461255e565b949350505050565b5f819050919050565b5f67ffffffffffffffff82169050919050565b5f819050919050565b5f612a3f612a3a612a3584612a00565b612a1c565b612a09565b9050919050565b612a4f81612a25565b82525050565b5f602082019050612a685f830184612a46565b92915050565b5f81905092915050565b5f612a8282612426565b612a8c8185612a6e565b9350612a9c818560208601612440565b80840191505092915050565b5f612ab38285612a78565b9150612abf8284612a78565b91508190509392505050565b612ad4816127c4565b8114612ade575f80fd5b50565b5f81519050612aef81612acb565b92915050565b5f60208284031215612b0a57612b0961236b565b5b5f612b1784828501612ae1565b91505092915050565b5f81519050919050565b5f82825260208201905092915050565b5f612b4482612b20565b612b4e8185612b2a565b9350612b5e818560208601612440565b612b6781612468565b840191505092915050565b5f608082019050612b855f83018761255e565b612b92602083018661255e565b612b9f6040830185612820565b8181036060830152612bb18184612b3a565b905095945050505050565b5f81519050612bca8161239e565b92915050565b5f60208284031215612be557612be461236b565b5b5f612bf284828501612bbc565b91505092915050565b7f4e487b71000000000000000000000000000000000000000000000000000000005f52601260045260245ffd5b5f604082019050612c3b5f83018561255e565b612c486020830184612820565b9392505050565b5f819050815f5260205f209050919050565b5f6020601f8301049050919050565b5f82821b905092915050565b5f60088302612cab7fffffffffffffffffffffffffffffffffffffffffffffffffffffffffffffffff82612c70565b612cb58683612c70565b95508019841693508086168417925050509392505050565b5f612ce7612ce2612cdd846124d0565b612a1c565b6124d0565b9050919050565b5f819050919050565b612d0083612ccd565b612d14612d0c82612cee565b848454612c7c565b825550505050565b5f90565b612d28612d1c565b612d33818484612cf7565b505050565b5b81811015612d5657612d4b5f82612d20565b600181019050612d39565b5050565b601f821115612d9b57612d6c81612c4f565b612d7584612c61565b81016020851015612d84578190505b612d98612d9085612c61565b830182612d38565b50505b505050565b5f82821c905092915050565b5f612dbb5f1984600802612da0565b1980831691505092915050565b5f612dd38383612dac565b9150826002028217905092915050565b612dec82612426565b67ffffffffffffffff811115612e0557612e04612646565b5b612e0f825461299b565b612e1a828285612d5a565b5f60209050601f831160018114612e4b575f8415612e39578287015190505b612e438582612dc8565b865550612eaa565b601f198416612e5986612c4f565b5f5b82811015612e8057848901518255600182019150602085019450602081019050612e5b565b86831015612e9d5784890151612e99601f891682612dac565b8355505b6001600288020188555050505b505050505050565b5f81905092915050565b5f612ec682612b20565b612ed08185612eb2565b9350612ee0818560208601612440565b80840191505092915050565b5f612ef78284612ebc565b91508190509291505056fea2646970667358221220f0301bab4bd830a1140b9a442e0b11442ec80bcb7068ad99ad95faf75d3dc9d664736f6c63430008150033",
  "immutableReferences": {
    "468": [
      {
        "length": 32,
        "start": 4399
      },
      {
        "length": 32,
        "start": 4484
      },
      {
        "length": 32,
        "start": 4926
      }
    ]
  },
  "source": "// SPDX-License-Identifier: MIT\npragma solidity ^0.8.10;\n\nimport \"@openzeppelin/contracts-upgradeable/token/ERC721/ERC721Upgradeable.sol\";\nimport \"@openzeppelin/contracts-upgradeable/access/OwnableUpgradeable.sol\";\nimport \"@openzeppelin/contracts-upgradeable/proxy/utils/Initializable.sol\";\nimport \"@openzeppelin/contracts-upgradeable/proxy/utils/UUPSUpgradeable.sol\";\n\ncontract MyToken is\n    Initializable,\n    ERC721Upgradeable,\n    OwnableUpgradeable,\n    UUPSUpgradeable\n{\n    function initialize() public initializer {\n        __ERC721_init(\"MyToken\", \"MTK\");\n        __UUPSUpgradeable_init();\n    }\n\n    function safeMint(address _to, uint256 _tokenId) public onlyOwner {\n        _safeMint(_to, _tokenId);\n    }\n\n    function _authorizeUpgrade(address _newImplementation)\n        internal\n        override\n        onlyOwner\n    {}\n}",
  "sourcePath": "/Users/jeremytemple/workplace/iyk/smart-contract/contracts/nft.sol",
  "compiler": {
    "name": "solc",
    "version": "0.8.21+commit.d9974bed.Emscripten.clang"
  },
  "schemaVersion": "3.4.16",
  "updatedAt": "2024-04-29T21:40:22.581Z",
  "devdoc": {
    "errors": {
      "AddressEmptyCode(address)": [
        {
          "details": "There's no code at `target` (it is not a contract)."
        }
      ],
      "ERC1967InvalidImplementation(address)": [
        {
          "details": "The `implementation` of the proxy is invalid."
        }
      ],
      "ERC1967NonPayable()": [
        {
          "details": "An upgrade function sees `msg.value > 0` that may be lost."
        }
      ],
      "ERC721IncorrectOwner(address,uint256,address)": [
        {
          "details": "Indicates an error related to the ownership over a particular token. Used in transfers.",
          "params": {
            "owner": "Address of the current owner of a token.",
            "sender": "Address whose tokens are being transferred.",
            "tokenId": "Identifier number of a token."
          }
        }
      ],
      "ERC721InsufficientApproval(address,uint256)": [
        {
          "details": "Indicates a failure with the `operator`s approval. Used in transfers.",
          "params": {
            "operator": "Address that may be allowed to operate on tokens without being their owner.",
            "tokenId": "Identifier number of a token."
          }
        }
      ],
      "ERC721InvalidApprover(address)": [
        {
          "details": "Indicates a failure with the `approver` of a token to be approved. Used in approvals.",
          "params": {
            "approver": "Address initiating an approval operation."
          }
        }
      ],
      "ERC721InvalidOperator(address)": [
        {
          "details": "Indicates a failure with the `operator` to be approved. Used in approvals.",
          "params": {
            "operator": "Address that may be allowed to operate on tokens without being their owner."
          }
        }
      ],
      "ERC721InvalidOwner(address)": [
        {
          "details": "Indicates that an address can't be an owner. For example, `address(0)` is a forbidden owner in EIP-20. Used in balance queries.",
          "params": {
            "owner": "Address of the current owner of a token."
          }
        }
      ],
      "ERC721InvalidReceiver(address)": [
        {
          "details": "Indicates a failure with the token `receiver`. Used in transfers.",
          "params": {
            "receiver": "Address to which tokens are being transferred."
          }
        }
      ],
      "ERC721InvalidSender(address)": [
        {
          "details": "Indicates a failure with the token `sender`. Used in transfers.",
          "params": {
            "sender": "Address whose tokens are being transferred."
          }
        }
      ],
      "ERC721NonexistentToken(uint256)": [
        {
          "details": "Indicates a `tokenId` whose `owner` is the zero address.",
          "params": {
            "tokenId": "Identifier number of a token."
          }
        }
      ],
      "FailedInnerCall()": [
        {
          "details": "A call to an address target failed. The target may have reverted."
        }
      ],
      "InvalidInitialization()": [
        {
          "details": "The contract is already initialized."
        }
      ],
      "NotInitializing()": [
        {
          "details": "The contract is not initializing."
        }
      ],
      "OwnableInvalidOwner(address)": [
        {
          "details": "The owner is not a valid owner account. (eg. `address(0)`)"
        }
      ],
      "OwnableUnauthorizedAccount(address)": [
        {
          "details": "The caller account is not authorized to perform an operation."
        }
      ],
      "UUPSUnauthorizedCallContext()": [
        {
          "details": "The call is from an unauthorized context."
        }
      ],
      "UUPSUnsupportedProxiableUUID(bytes32)": [
        {
          "details": "The storage `slot` is unsupported as a UUID."
        }
      ]
    },
    "events": {
      "Approval(address,address,uint256)": {
        "details": "Emitted when `owner` enables `approved` to manage the `tokenId` token."
      },
      "ApprovalForAll(address,address,bool)": {
        "details": "Emitted when `owner` enables or disables (`approved`) `operator` to manage all of its assets."
      },
      "Initialized(uint64)": {
        "details": "Triggered when the contract has been initialized or reinitialized."
      },
      "Transfer(address,address,uint256)": {
        "details": "Emitted when `tokenId` token is transferred from `from` to `to`."
      },
      "Upgraded(address)": {
        "details": "Emitted when the implementation is upgraded."
      }
    },
    "kind": "dev",
    "methods": {
      "approve(address,uint256)": {
        "details": "See {IERC721-approve}."
      },
      "balanceOf(address)": {
        "details": "See {IERC721-balanceOf}."
      },
      "getApproved(uint256)": {
        "details": "See {IERC721-getApproved}."
      },
      "isApprovedForAll(address,address)": {
        "details": "See {IERC721-isApprovedForAll}."
      },
      "name()": {
        "details": "See {IERC721Metadata-name}."
      },
      "owner()": {
        "details": "Returns the address of the current owner."
      },
      "ownerOf(uint256)": {
        "details": "See {IERC721-ownerOf}."
      },
      "proxiableUUID()": {
        "details": "Implementation of the ERC1822 {proxiableUUID} function. This returns the storage slot used by the implementation. It is used to validate the implementation's compatibility when performing an upgrade. IMPORTANT: A proxy pointing at a proxiable contract should not be considered proxiable itself, because this risks bricking a proxy that upgrades to it, by delegating to itself until out of gas. Thus it is critical that this function revert if invoked through a proxy. This is guaranteed by the `notDelegated` modifier."
      },
      "renounceOwnership()": {
        "details": "Leaves the contract without owner. It will not be possible to call `onlyOwner` functions. Can only be called by the current owner. NOTE: Renouncing ownership will leave the contract without an owner, thereby disabling any functionality that is only available to the owner."
      },
      "safeTransferFrom(address,address,uint256)": {
        "details": "See {IERC721-safeTransferFrom}."
      },
      "safeTransferFrom(address,address,uint256,bytes)": {
        "details": "See {IERC721-safeTransferFrom}."
      },
      "setApprovalForAll(address,bool)": {
        "details": "See {IERC721-setApprovalForAll}."
      },
      "supportsInterface(bytes4)": {
        "details": "See {IERC165-supportsInterface}."
      },
      "symbol()": {
        "details": "See {IERC721Metadata-symbol}."
      },
      "tokenURI(uint256)": {
        "details": "See {IERC721Metadata-tokenURI}."
      },
      "transferFrom(address,address,uint256)": {
        "details": "See {IERC721-transferFrom}."
      },
      "transferOwnership(address)": {
        "details": "Transfers ownership of the contract to a new account (`newOwner`). Can only be called by the current owner."
      },
      "upgradeToAndCall(address,bytes)": {
        "custom:oz-upgrades-unsafe-allow-reachable": "delegatecall",
        "details": "Upgrade the implementation of the proxy to `newImplementation`, and subsequently execute the function call encoded in `data`. Calls {_authorizeUpgrade}. Emits an {Upgraded} event."
      }
    },
    "version": 1
  },
  "userdoc": {
    "kind": "user",
    "methods": {},
    "version": 1
  }
}